:100000000C945D000C9485000C9485000C94850084
:100010000C9485000C9485000C9485000C9485004C
:100020000C9485000C9485000C9485000C942F048E
:100030000C9485000C9485000C9485000C9485002C
:100040000C94B7020C9485000C9485000C948500E8
:100050000C9485000C9485000C9485000C9485000C
:100060000C9401030C9485000000000800020100BC
:100070000003040700000000000000000000000072
:10008000250028002B0000000000240027002A0083
:10009000040404040404040402020202020203032E
:1000A0000303030301020408102040800102040836
:1000B0001020010204081020F00411241FBECFEF0D
:1000C000D8E0DEBFCDBF11E0A0E0B1E0EEE6FCE09D
:1000D00002C005900D92A231B107D9F722E0A2E14A
:1000E000B1E001C01D92A530B207E1F710E0CDE507
:1000F000D0E004C02197FE010E942A06CC35D1072A
:10010000C9F70E9425050C9435060C94000090E078
:10011000FC01EC55FF4F2491FC01E057FF4F849107
:10012000882399F090E0880F991FFC01EA57FF4F50
:10013000A591B491FC01E458FF4F859194918FB73C
:10014000F894EC91E22BEC938FBF0895382F209117
:10015000CF019091CE01213208F049C08091AB01CE
:100160008111FCCF42E04093AB013093AA013FEFF5
:100170003093A9011092A8012093A701AEEAB1E043
:1001800047E851E0FA013E2F341B321718F43D9135
:100190003193F9CF1092860120918601990F922B0D
:1001A0009093860190918501913061F410928501C0
:1001B000909186019093BB009091BC0093FDF8CF85
:1001C00095EC01C095EE9093BC009091AB019230FC
:1001D000E1F39091A9019F3F79F08091A9018032CC
:1001E00041F08091A901803331F084E005C081E0C5
:1001F00003C082E001C083E01092AD011092CF01F4
:100200001092AC01089590E0FC01E859FF4F349141
:10021000FC01EC55FF4F2491FC01E057FF4FE491A6
:10022000EE2309F43BC0332339F1333091F038F435
:100230003130A9F0323001F584B58F7D12C03730EE
:1002400091F03830A1F03430B9F4809180008F7D86
:1002500003C0809180008F77809380000DC084B5AB
:100260008F7784BD09C08091B0008F7703C08091E3
:10027000B0008F7D8093B000F0E0EE0FFF1FE458D8
:10028000FF4FA591B4918FB7F894EC91611103C021
:1002900020952E2301C02E2B2C938FBF08953FB79E
:1002A000F8948091810190918201A0918301B09195
:1002B000840126B5A89B05C02F3F19F00196A11D0A
:1002C000B11D3FBFBA2FA92F982F8827820F911DEC
:1002D000A11DB11DBC01CD0142E0660F771F881F33
:1002E000991F4A95D1F708958F929F92AF92BF922E
:1002F000CF92DF92EF92FF926B017C010E944F013F
:100300004B015C01C114D104E104F104F1F00E943D
:100310004F01DC01CB0188199909AA09BB09883E64
:100320009340A105B10570F321E0C21AD108E1089C
:10033000F10888EE880E83E0981EA11CB11CC11440
:10034000D104E104F10419F7DDCFFF90EF90DF90C5
:10035000CF90BF90AF909F908F900895CF92DF92F3
:10036000EF92FF920F931F93CF93DF936C017A016B
:100370008B01C0E0D0E0CE15DF0589F0D8016D918A
:100380008D01D601ED91FC910190F081E02DC60127
:100390000995892B11F47E0102C02196ECCFC7018B
:1003A000DF91CF911F910F91FF90EF90DF90CF9051
:1003B000089585ED8093BC008091BC0084FDFCCF46
:1003C0001092AB01089540913501262F30E0240FA3
:1003D000311D21323105DCF42091AB012430C9F408
:1003E000FC0180E090E0861758F4309135012191AE
:1003F000DC01AD5EBE4FA30FB11D2C930196F3CF70
:1004000080913501680F6093350180E0089581E0A7
:10041000089582E008950895E0915B0180915A016A
:10042000E81730F4F0E0E45AFE4F808190E0089540
:100430008FEF9FEF089590915B0180915A0198177B
:1004400050F4E92FF0E0E45AFE4F208130E09F5F46
:1004500090935B0102C02FEF3FEFC9010895809197
:100460005A0190E020915B01821B91090895CF927F
:10047000DF92EF92FF920F931F93CF93DF937C0154
:10048000262F972F8A018091AC01882391F0C62FE7
:10049000D72F6E01C40ED51ECC15DD0571F0699104
:1004A000D701ED91FC910190F081E02DC7010995F4
:1004B000F3CF642F822F0E94E301C801DF91CF9117
:1004C0001F910F91FF90EF90DF90CF900895CF9301
:1004D000DF931F92CDB7DEB769832091AC01222351
:1004E000D1F02091CF01203240F021E030E0FC013A
:1004F0003383228380E090E015C08091AD01E82F26
:10050000F0E0E255FE4F998190838F5F8093AD01BB
:100510008093CF0105C061E0CE0101960E94E30106
:1005200081E090E00F90DF91CF910895CF93C62F97
:100530009091010221E02093AC019093CE011092A2
:10054000AD011092CF01682F80ED91E00E9467020B
:100550006C2F80ED91E00E94670281E0CF910C94B6
:10056000A600089580E090E008950E9430061F9252
:100570000F920FB60F9211242F933F938F939F9357
:10058000AF93BF9380917D0190917E01A0917F01F7
:10059000B091800130917C0123E0230F2D3720F4AE
:1005A0000196A11DB11D05C026E8230F0296A11DCD
:1005B000B11D20937C0180937D0190937E01A093D7
:1005C0007F01B09380018091810190918201A0917F
:1005D0008301B09184010196A11DB11D8093810119
:1005E00090938201A0938301B0938401BF91AF9156
:1005F0009F918F913F912F910F900FBE0F901F9061
:1006000018951F920F920FB60F9211242F933F93BC
:100610004F935F936F937F938F939F93AF93BF930A
:10062000EF93FF938091B900887F803609F49CC0D6
:1006300068F5883209F45BC090F4803109F454C045
:1006400038F4882309F4F6C0883009F44DC0F6C0A8
:10065000883109F44CC0803209F45DC0EFC08034A9
:1006600009F468C048F4803309F455C0883309F0B0
:10067000E5C08093A901D8C0803509F44FC0883502
:1006800009F45DC0883409F0D9C0D6C0883909F4AE
:10069000C7C0A8F4883709F467C038F4883609F46D
:1006A00063C0803709F460C0C9C0883809F4B8C095
:1006B000803909F45FC0803809F0C0C05BC0803B5E
:1006C00009F486C038F4803A09F466C0883A09F41F
:1006D0007FC0B4C0803C09F4A7C0883C09F4A4C022
:1006E000883B09F48AC0AAC08091860110C090910D
:1006F000A8018091A701981770F5E091A80181E009
:100700008E0F8093A801F0E0E957FE4F808180931F
:10071000BB0085EC86C08093A9018EC0E091A80142
:1007200081E08E0F8093A8018091BB00F0E0E95733
:10073000FE4F80839091A8018091A7016EC0E09147
:10074000A80181E08E0F8093A8018091BB00F0E0AA
:10075000E957FE4F80838091AA0181116DC081E02D
:100760008093850184EA61C083E08093AB0110929D
:100770005901CFCF80915901803208F051C0E091EA
:10078000590181E08E0F809359018091BB00F0E008
:10079000E75CFE4F8083BDCF85EC8093BC00109258
:1007A000AB0180915901803230F4E0915901F0E0C1
:1007B000E75CFE4F10826091590170E0E0913701D3
:1007C000F091380189E391E009951092590136C002
:1007D00084E08093AB011092360110923501E091D4
:1007E0003301F0913401099580913501811105C0E3
:1007F00081E08093350110921301E091360181E090
:100800008E0F80933601F0E0ED5EFE4F8081809385
:10081000BB009091360180913501981708F479CF8B
:1008200085E88093BC000AC085EC8093BC001092E0
:10083000AB0104C01092A9010E94D901FF91EF9170
:10084000BF91AF919F918F917F916F915F914F91E8
:100850003F912F910F900FBE0F901F9018951F92F0
:100860000F920FB60F9211242F933F934F935F93E4
:100870006F937F938F939F93AF93BF93EF93FF9368
:100880008091120187FF05C01092850010928400AC
:100890001BC020911201022E000C330B809100022C
:1008A00090E02817390784F480911201082E000C7B
:1008B000990BFC01EE0FFF1F8E0F9F1FFC01E452EE
:1008C000FE4F808186FD15C0809112018F5F80935D
:1008D000120120911201022E000C330B80910002B4
:1008E00090E028173907C4F4809112018C3064F12C
:1008F00013C080911201082E000C990BFC01EE0F21
:10090000FF1F8E0F9F1FFC01E452FE4F808160E0AD
:100910008F730E940301D8CF80918400909185004D
:10092000049680349C4918F480E49CE905C08091C9
:1009300084009091850004969093890080938800AC
:100940008FEF809312013BC020918400309185008D
:1009500080911201082E000C990BFC01EE0FFF1F75
:100960008E0F9F1FFC01E452FE4F81819281820F06
:10097000931F909389008093880080911201082E24
:10098000000C990BFC01EE0FFF1F8E0F9F1FFC0147
:10099000E452FE4F808186FF12C080911201082E22
:1009A000000C990BFC01EE0FFF1F8E0F9F1FFC0127
:1009B000E452FE4F808161E08F730E940301FF913A
:1009C000EF91BF91AF919F918F917F916F915F91C7
:1009D0004F913F912F910F900FBE0F901F90189540
:1009E0001092D3011092D20188EE93E0A0E0B0E023
:1009F0008093D4019093D501A093D601B093D701F1
:100A000084E091E09093D1018093D0018091000225
:100A10008C30A0F491E0980F909300028093020232
:100A200090E0FC01EE0FFF1F8E0F9F1FFC01E452B0
:100A3000FE4F88EB9BE09283818303C08FEF80930E
:100A4000020280E4809301020895789484B5826064
:100A500084BD84B5816084BD85B5826085BD85B562
:100A6000816085BD80916E00816080936E001092E0
:100A7000810080918100826080938100809181005B
:100A800081608093810080918000816080938000EC
:100A90008091B10084608093B1008091B00081604A
:100AA0008093B00080917A00846080937A00809176
:100AB0007A00826080937A0080917A0081608093CE
:100AC0007A0080917A00806880937A001092C10049
:100AD00010925B0110925A011092AD011092CF0159
:100AE0001092AB01C1E0C093AA011092850161E0B0
:100AF00082E10E94030161E083E10E940301809191
:100B0000B9008E7F8093B9008091B9008D7F80936A
:100B1000B90088E48093B80085E48093BC0060E06D
:100B200080E00E94960280910102C093AC01809304
:100B3000CE011092AD011092CF0160E080ED91E006
:100B40000E94670281E00E94A600809101029091BC
:100B5000AB019111FCCF91E09093AB019093AA016E
:100B60002FEF2093A9011092A8011092A701909352
:100B7000860190918601880F892B80938601809150
:100B80008501813061F41092850180918601809306
:100B9000BB008091BC0083FDF8CF85EC01C085EEE1
:100BA0008093BC008091AB018130E1F38091A8017A
:100BB000811103C08091A80101C081E0A7E8B1E0E4
:100BC0002CE531E0F9019E2F921B981718F49D91A6
:100BD0009193F9CF10925B0180935A0180ED91E0DF
:100BE0000E941B02C82F682F6F76606180E00E9410
:100BF000960267E88EEF0E9496026C2F80E00E94BA
:100C0000960265E070E080E090E00E9474016C2F35
:100C1000616A80E00E94960286E00E94870087E079
:100C20000E948700C0E0D0E061E087E00E940301FD
:100C300086E00E94870061E086E00E94030168EE82
:100C400073E080E090E00E947401209769F30E94B5
:100C50000000EACFEE0FFF1F0590F491E02D0994FC
:0E0C600081E090E0F8940C943506F894FFCFF4
:100C6E000000000067023702B2020B022F021B02C5
:020C7E000C0266
:00000001FF
